:020000040800F2
:1000000008B40020A10100080734000819330008D3
:10001000DD330008251900083558000800000000ED
:100020000000000000000000000000000B4D000870
:1000300027190008000000001D4300080D4D0008AE
:10004000C7010008C7010008C7010008C701000870
:10005000C7010008C7010008C7010008C701000860
:10006000C7010008C7010008C7010008C701000850
:10007000C7010008C7010008C7010008C701000840
:10008000C7010008C7010008C7010008C701000830
:10009000C7010008C7010008C7010008C701000820
:1000A000C7010008C7010008C7010008C701000810
:1000B000C7010008C7010008C7010008C701000800
:1000C000C7010008C7010008C7010008C7010008F0
:1000D000C7010008495600087D5600085957000816
:1000E000C7010008C7010008C7010008C7010008D0
:1000F000C7010008C7010008C7010008C7010008C0
:10010000C7010008C7010008C7010008C7010008AF
:10011000C7010008C7010008C7010008C70100089F
:10012000C7010008C7010008C7010008C70100088F
:10013000C7010008C7010008C7010008C70100087F
:10014000C7010008C7010008C7010008C70100086F
:10015000C7010008C7010008C7010008C70100085F
:10016000C7010008C7010008C7010008C70100084F
:10017000C7010008C7010008C7010008000000000F
:10018000C7010008C7010008DFF810D000F0C0FC6C
:1001900000480047859D0008AFF3008008B40020A8
:1001A0000948804709480047094B1860D0F800D03B
:1001B00041680847FEE7FEE7FEE7FEE7FEE7FEE7E9
:1001C000FEE7FEE7FEE7FEE71D4E00088901000896
:1001D00008ED00E02DE9F05F0546002092469B46C1
:1001E00088460646814640241BE02846414647464D
:1001F000224600F02CFB53465A46C01A914110D3B8
:1002000011461846224600F013FB2D1A67EB010831
:100210004F4622460120002100F00AFB17EB00099F
:100220004E41201EA4F10104DFDC484631462A4637
:100230004346BDE8F09F00000048704764CC0008CA
:1002400010B50446FFF7F8FF0068005D00F00100FC
:1002500010BDA0F14101192900D82030704710B518
:10026000431A934209D28318881803E010F8011D3D
:1002700003F8011D521EF9D210BD40EA01039B078D
:1002800003D009E008C9121F08C0042AFAD203E00B
:1002900011F8013B00F8013B521EF9D210BDD2B259
:1002A00001E000F8012B491EFBD270470022F6E75F
:1002B00010B513460A4604461946FFF7F0FF2046DC
:1002C00010BD30B505462A460B4612F8010B13F84F
:1002D000014B08B1A042F8D01CB1002802D06D1C1F
:1002E000F1E7284630BD10B5044604E00B7800F86D
:1002F000013B03B1491C521EF8D2204610BDCAB2C0
:10030000401E10F8011F8A4202D00029F9D10020B6
:100310007047421C10F8011B0029FBD1801A70475E
:1003200010B5002200E0521C835C8C5CA34201D11A
:10033000002BF8D1D8B2E1B2401A10BD30B5044656
:100340000020034600E05B1C934203D2E05CCD5CDE
:10035000401BF8D030BD034611F8012B00F8012BEB
:10036000002AF9D11846704730B5054600200346EB
:1003700000E05B1C934205D2EC5CC85C201A01D102
:10038000002CF6D130BD0022CBB20178994200D1C9
:100390000246401C0029F8D11046704710B508E00D
:1003A0000A4602E0A34208D0521C1378002BF9D170
:1003B000401C0478002CF3D1002010BD0FB400B510
:1003C0008DB010A909900B9000914FF0FF300A906A
:1003D00000200C9005480690054807906A4609A839
:1003E0000F9900F06BFA0DB05DF814FBD908000806
:1003F000F70800082DE9FF5F1D464FF0FF3BD5E9E8
:10040000014691465F464FF00008A9697F1C01989C
:100410008847296A824688470028F6D1BAF1FF3F0B
:100420000CD024F4C064002E19DD600614D5BAF196
:100430002B0F09D0BAF12D0F0ED103E0584604B0AE
:10044000BDE8F09F44F48064A9697F1C0198884747
:10045000761E8246002E02DDBAF1300F03D0B9F1CC
:10046000000F26D032E0A969761E44F400747F1C88
:10047000019888478246002E05DDBAF1780F06D034
:10048000BAF1580F03D0B9F1000F10D01EE0B9F146
:10049000000F02D0B9F1100F18D1A969761E24F40B
:1004A00000747F1C019888478246102002E00820D3
:1004B00000E00A20814609E008FB0908A969761EC8
:1004C00044F400747F1C019888478246002E05DDA5
:1004D0004946504600F0DDF90028EDDAE969019857
:1004E0008847A00502D46FF00100A8E7E00725D1F6
:1004F000600613D5600502D5C8F1000000E0404653
:1005000029680A1D2A600968220501D5087015E0CE
:10051000220701D5088011E008600FE02868011D5E
:1005200029600068210502D580F8008006E02107D7
:1005300002D5A0F8008001E0C0F8008038467EE7D0
:100540002DE9FE4F804681EA0300C00F0C46009063
:1005500021F0004123F00045B8EB0200A94105D28B
:100560004046214690461C460B46024623F000407A
:10057000104347D0270DC7F30A00C3F30A51029076
:10058000401A019040286BDAC3F3130040F4801B3B
:100590000098924620B10023D2EB030A63EB0B0BC9
:1005A00001985946C0F14002504600F041F9064614
:1005B0000D4650465946019A00F059F910EB0800D3
:1005C0006141002487EA115284EAE7731A4340D05C
:1005D000009A62B3019A012A4FEA075215DC001B08
:1005E00061EB02014FF0004202EA0752CDE90042FE
:1005F000001C41F5801132462B4600F09CF903B0F7
:10060000BDE8F08F40462146F9E7001B61EB02018F
:10061000001C41F5801300185B412018A2F500175B
:1006200047EB030140EAD570B6196D4111E06D0842
:100630004FEA360645EAC0754FEA0752001B61EBE8
:100640000201001C41F5801149084FEA30000019F1
:10065000514132462B4603B0BDE8F04F00F05CB983
:100660000098012240000023D0EB020263EBE0730C
:10067000009821464FEAE074B8EB000061EB0401FA
:10068000E9E783F000435BE781F0004158E72DE99B
:10069000FE4F81EA030404F0004421F0004100947D
:1006A0004FF0000B23F0004350EA01045ED052EA01
:1006B00003045BD0C3F30A54C1F30A552C44A4F2DB
:1006C000F3340194A0FB0254C1F3130141F48011EF
:1006D000C3F3130343F4801301FB024400FB034EF6
:1006E000840A970A44EA815447EA8357A4FB0768BF
:1006F00002958D0A05FB07854FEA932C04FB0C54E9
:100700002705029D4FEA065847EA1637B5EB08055C
:100710006EEB070C870E920E47EA811742EA8312AE
:10072000A7FB0201B6EB0B0164EB00042B0D43EABF
:100730000C335E1844EB1C50DA465146E7FB0201CD
:10074000C5F313044FEA0B3343EA14534FEA043260
:10075000019C43EA0603A4F10C040294009CCDE939
:1007600000B400F0E8F803B0BDE8F08F00200146C7
:10077000F9E70EB5C10F80EAE0700844CA0700210E
:1007800040F233438DE80E000A460B4600F0D3F8E2
:1007900003B000BD70B5C1F30A5201F0004500245A
:1007A000C1F3130140F2FF3341F480119A4201DAA0
:1007B000002070BD40F233439A42A2F2334203DC80
:1007C000524200F044F800E090402C43F1D0404207
:1007D00070BD000030B5041E71F1000404DB4FF061
:1007E0000044404264EB0101141E73F1000405DB78
:1007F0001C464FF00043524263EB0403994208BF8A
:10080000904230BD30B50B46014600202022012425
:1008100009E021FA02F59D4205D303FA02F5491BCE
:1008200004FA02F52844151EA2F10102F1DC30BDE4
:10083000202A04DB203A00FA02F1002070479140A0
:10084000C2F1200320FA03F3194390407047202A95
:1008500004DB203A21FA02F00021704721FA02F36A
:10086000D040C2F120029140084319467047202A27
:1008700006DBCB17203A41FA02F043EAE07306E0C8
:1008800041FA02F3D040C2F12002914008431946D8
:1008900070473A2800D2303820F02002412A01D394
:1008A000A2F13700884201D34FF0FF3070470000BB
:1008B000026811441378016018467047D1600449FA
:1008C00051610449116200211161114600F032B9F1
:1008D000B108000841020008426842B1016811F8FD
:1008E000013B23B1521EC0E9001218467047012196
:1008F000C160881E704742685AB1C368016843B935
:1009000083688B4205D0491E521CC0E900120020AA
:1009100070474FF0FF30704710B5141E73F100049C
:1009200008DA401C41F1000192185B411A4301D1E1
:1009300020F0010010BD2DE9F04D92469B4611B10B
:10094000B1FA81F202E0B0FA80F220329046FFF76D
:100950006FFF04460F4640EA0A0041EA0B01534686
:100960005A46084313D0114653EA010019D0C8F182
:1009700040025046FFF76BFF05460E46504659466B
:100980004246FFF755FF084305D0012004E020460A
:100990003946BDE8F08D0020054346EAE0762C4359
:1009A00037430A986305E40AA0EB08000022FD0A19
:1009B00044EA47540A3002D500200146E9E7010520
:1009C00010196941DDE9084500196941BDE8F04D9C
:1009D000A2E72DE9F04D81EA030404F0004B21F079
:1009E000004514464FF0000A23F0004150EA05028A
:1009F00020D054EA01021DD0C5F30A570246C5F3C0
:100A00001303C1F31300C1F30A5640F4801543F4F5
:100A10008013A7EB0608101BD64608F2FD3873EBCF
:100A2000050002D308F1010801E092185B41B8F11A
:100A3000000F03DA00200146BDE8F08D00204FF4DE
:100A40008011064684460EE0171B73EB050705D39D
:100A5000121B63EB050306434CEA010C49084FEAFD
:100A6000300092185B4150EA0107EDD152EA0300D1
:100A700012D082EA040083EA0501084305D0101B66
:100A8000AB4106D20122002306E000224FF00043D2
:100A900002E06FF0010253101AEB06004CEB085114
:100AA00010EB0A0041EB0B01BDE8F04DFFF734BF3E
:100AB00070B521F0004303430CD0C1F30A55002464
:100AC000D5EB040564EB0403D617AD1AB34102DB82
:100AD0000020014670BD201841EB025170BDC1F3EA
:100AE0000A52C1F3130140F2FF3341F480119A42DC
:100AF00002DA00200146704740F233439A42A2F2E4
:100B0000334202DC5242FFF7A2BEFFF791BE000063
:100B1000064C074D06E0E06840F0010394E807004A
:100B200098471034AC42F6D3FFF732FBCCCF000825
:100B3000ECCF00082DE9F34F8BB04FF0000801F126
:100B40000C000C464FF0010B46460DF1080A0190CF
:100B50006269012101989047051E2DD0252D2CD0CA
:100B6000216A8847C0B16269012101989047216AD2
:100B700088470028F7D1411E62690198904700E03C
:100B8000761CA1690B988847216A88470028F7D10D
:100B9000E1690B988847DBE7A1690B98884707460E
:100BA000A84201D1761CD3E7E1690B9888477F1CE6
:100BB00002D1B8F1000F6FD047E1002762693D46CE
:100BC0003946019890472A2804D162690121019889
:100BD00090470125DFF888926269012101989047CA
:100BE000A0F130010A290AD24F45E5DC07EB870165
:100BF00000EB4107303FDFD445F01005ECE7E90694
:100C000001D46FF000476C280AD04C2814D0682813
:100C100015D06A280DD074281CD07A281AD01DE06F
:100C200062690121019890476C2802D045F00405C3
:100C300014E045F002050DE045F020050AE0626988
:100C4000012101989047682802D045F0080505E089
:100C500045F400656269012101989047C4E9015794
:100C600065283DD019DC58287AD00CDC452837D0CF
:100C700004DC252826D0412831D131E046282FD068
:100C800047282CD12CE05B2877D0612828D0632816
:100C90007CD0642823D15AE0D1E06F2848D008DC0A
:100CA00066281DD067281BD0692821D06E2816D150
:100CB00027E0702845D0732868D0752847D0782859
:100CC0000DD14DE0A1690B988847054625283FF4D2
:100CD00069AFE1690B9888476D1C3FF46AAFB4E0D7
:100CE00023466A466FF001000B99AFF300809FE046
:100CF00045F040006060A80723464FF0000236D45C
:100D00003EE0E8077FF447AF2068011D21600068DE
:100D1000290501D506701BE7290701D5068017E7CD
:100D2000A90703D5F117C0E9006111E706600FE7D5
:100D300045F040006060A80723464FF0080216D433
:100D40001EE040F60E0125EA0100606016E045F065
:100D500040006060A80723464FF00A0207D40FE066
:100D600045F040006060A80708D5234610226FF0C8
:100D700001000B99AFF300805AE007E023461022F0
:100D80006FF001000B99FFF735FB51E04FF00009C0
:100D90004F464B46632802D05B2807D041E02079BC
:100DA000C00601D40120A06001273AE06269012158
:100DB000019890475E2805D14FF0010962694946C4
:100DC00001989047216939B900210A46534643F8F2
:100DD0002120491C0829FADBB0B3216969B9C11780
:100DE00000EBD16253110AEB830122F01F02821A39
:100DF00001200B68904003430B6062690121019858
:100E000090475D28E8D1B9F1000F09D00020514684
:100E100051F82020D24341F82020401C0828F7DB5D
:100E200002AB224600976FF001000B99AFF30080F0
:100E300000280CDA401C08D1BBF1000F05D04FF0A0
:100E4000FF300DB0BDE8F08FFFE74046F9E7E90756
:100E500001D108F1010806444FF0000B78E60000CC
:100E6000CCCCCC0C2DE9F04D00231A461B1A8A413C
:100E700003DB00200146BDE8F08DC1F30A52C1F347
:100E8000130141F480154FF0000BD10702D1001877
:100E90006D41521E0027044640F2FF11384601EB17
:100EA000620A3E468046024600204FF48011FFF75A
:100EB000CEFCC2197141BB1846EB0100B4EB030C28
:100EC00075EB000C04D3E41A65EB000517460E46DB
:100ED000241908F101006D4180463428E3DDF91939
:100EE00046EB0600091BA84103D24FF0FF32134620
:100EF00001E0002213461BEB070046EB0A51BDE858
:100F0000F04DFFF709BD70B58C1810F8015B15F0B6
:100F1000070301D110F8013B2A1106D110F8012B6B
:100F200003E010F8016B01F8016B5B1EF9D12B0790
:100F300005D40023521E0DD401F8013BFAE710F846
:100F4000013BCB1A921C03E013F8015B01F8015B33
:100F5000521EF9D5A142D8D3002070BD30B5A1B042
:100F6000802101A8FFF7A2F94FF47A7422463EA12E
:100F70003EA004F0B1F998B122463EA141A004F090
:100F8000ABF9A0B1224642A143A004F0A5F9A0B15B
:100F900065002A4643A146A004F09EF998B119E0E5
:100FA00046A004F05DFD4FF0FF3021B030BD4CA0F5
:100FB00004F056FD6FF00100F7E750A004F050FD7B
:100FC0006FF00200F1E72A4655A139A004F084F938
:100FD00000282AD0224624A154A004F07DF900283C
:100FE00029D05AA0009062A364A267A101A804F0CE
:100FF00047FD2A461CA101A804F06EF9002820D064
:1010000042F210726AA16EA004F066F900281ED0A8
:1010100041F2883279A17DA004F05EF900281CD04D
:101020007FA004F01DFD0020BFE789A004F018FD9B
:101030006FF00300B9E790A004F012FD6FF0040018
:10104000B3E799A004F00CFD6FF00500ADE7A2A096
:1010500004F006FD6FF00600A7E7A8A004F000FD6D
:101060006FF00700A1E700004F4B000041540D0A4C
:10107000000000002B4350494E3A2052454144594C
:101080000000000041542B4350494E3F0D0A000020
:101090002B4353513A00000041542B4353510D0A46
:1010A000000000002B435245473A20302C3100000D
:1010B00041542B435245473F0D0A00004572726F61
:1010C000723A203447206D6F64756C65206E6F74C2
:1010D00020726573706F6E64696E670D0A000000A0
:1010E0004572726F723A2053494D206361726420D9
:1010F0006E6F742072656164790D0A004572726FBB
:10110000723A2043616E6E6F742067657420736954
:10111000676E616C207175616C6974790D0A0000ED
:101120002B435245473A20302C35000041542B5177
:101130004D544346473D22726563762F6D6F64655B
:10114000222C302C302C310D0A0000003361313557
:101150003161656530383165303236643037343965
:1011600037383030393439366239353200000000D2
:10117000426F6F744C6F6164657200006B316D6714
:10118000344E62653868750041542B514D544346C6
:10119000473D22616C6961757468222C302C2225D0
:1011A00073222C222573222C222573220D0A000083
:1011B0002B514D544F50454E3A20302C30000000FA
:1011C00041542B514D544F50454E3D302C22696FA8
:1011D000742D61732D6D7174742E636E2D7368613F
:1011E0006E676861692E616C6979756E63732E63D1
:1011F0006F6D222C313838330D0A00002B514D54BD
:10120000434F4E4E3A20302C302C300041542B515D
:101210004D54434F4E4E3D302C300D0A000000001F
:101220005375636365737366756C6C7920636F6E59
:101230006E656374656420746F20416C6979756EA6
:1012400020496F5420706C6174666F726D0D0A00D6
:101250004572726F723A204E6F74207265676973BF
:10126000746572656420746F2047534D206E6574F9
:10127000776F726B0D0A00004572726F723A2046EA
:1012800061696C656420746F20636F6E6669677551
:101290007265204D515454207265636569766520EE
:1012A0006D6F64650D0A00004572726F723A2046D8
:1012B00061696C656420746F20636F6E6669677521
:1012C000726520416C6979756E2064657669636525
:1012D00020696E666F0D0A004572726F723A204681
:1012E00061696C656420746F206F70656E204D516C
:1012F000545420636C69656E740D0A004572726FF8
:10130000723A204661696C656420746F20636F6E69
:101310006E65637420746F204D5154542073657250
:101320007665720D0A0000000146014801F000BB1D
:101330001007002010B5044801F00CFB042801D070
:10134000012010BD002010BD1007002010B500F0D6
:1013500015F8012801D0012010BD074801F010FB4D
:10136000040006D14FF40061034801F089F900B18F
:101370000124204610BD00001007002008B5012000
:101380008DF800009DF8000008BD000038B500246D
:10139000009313460A460146034801F095FB00B14D
:1013A0000124204638BD00001007002038B5002475
:1013B000009313460A460146034801F075FC00B14C
:1013C0000124204638BD0000100700202DE9F0431D
:1013D000ADF2244D684E6949002099AA51F8203099
:1013E00042F82030401C1028F8DB002528464FF436
:1013F000004200BF56F82010491C01D085002D1D69
:10140000401C9042F6D3002D1FD05D4A0DF583633A
:1014100007CA83E80700184604F012FB10B159A070
:1014200004F01EFBDDF8200400900DF5836263A13B
:101430000CCAFEA804F024FB00273C46FEAB644A1D
:1014400064A18DA804F01CFB0FE065A004F008FB6C
:101450004FF0FF300DF2244DBDE8F083FEAB5C4A47
:101460006FA18DA8009404F00BFBA9A98DA807F02B
:101470007DFC0146042806D0B1B16DA004F0F0FA5D
:101480006FF00100E6E75249F0A807F065FBB8B13C
:1014900001224F496B4807F02DFAA0B16AA004F071
:1014A000DFFA6FF00300D5E7641C632C05D96BA04D
:1014B00004F0D6FA6FF00200CCE7002CBED0CDE7E6
:1014C000F0A807F005FA06228DA901A807F03EFA58
:1014D000020006D08DA96BA004F0C2FA6FF00400E0
:1014E000B8E7EFAB402299A901A8EF9707F0F2FC0B
:1014F000010002D1EF9840280CD06AA0EF9A04F0C6
:10150000AFFA01A807F0D0F98DA807F094FC6FF0AE
:1015100005009FE7B0462C464FF480691FE04E4619
:10152000B44200D82646EFAB3246414601A8EF97B9
:1015300007F0D0FC010002D1EF98B0420DD0334645
:1015400061A0EF9A04F08CFA01A807F0ADF98DA81C
:1015500007F071FC6FF006007CE7B044A41B002C80
:10156000DDD101A807F0A0F92A468DA961A004F0F9
:1015700077FA00206EE7000000000608000004086B
:101580005CC800085761726E696E673A2074696DB5
:1015900065206665746368206661696C65642C20EB
:1015A0007573696E672066616C6C6261636B203174
:1015B000393730303130310D0A0000004150505F72
:1015C0002530346425303264253032640000000058
:1015D000F206002025732F25732E62696E0000002D
:1015E0004261636B75702061626F72743A206E6F36
:1015F0002076616C6964206461746120696E206189
:10160000707020736563746F722028616C6C203079
:10161000784646464646464646290D0A00000000E2
:1016200025732F25735F25752E62696E00000000FB
:10163000665F73746174206572726F72202825640E
:10164000290D0A00748D00204D6F756E742053446F
:10165000206661696C65640D0A000000546F6F209C
:101660006D616E79206475706C6963617465206268
:1016700061636B75702066696C656E616D65730D75
:101680000A0000004372656174652066696C65201C
:101690002573206661696C656420282564290D0A1C
:1016A00000000000577269746520686561646572A6
:1016B000206661696C65642066723D2564206277EE
:1016C0003D25750D0A00000057726974652064613C
:1016D0007461206661696C65642066723D256420D2
:1016E00062773D2575206578706563743D25750DBD
:1016F0000A0000004261636B757020737563636557
:1017000073733A20257320286865616465722036FA
:101710003442202B2061707020256C7542290D0AFF
:10172000000000000068C0F3407070475FF01001D7
:1017300050F82120521C01D000207047491C20295C
:10174000F6DB01207047000070B598B0142110A896
:10175000FEF7ACFD00241A4D20466E46CDF85840E9
:1017600055F8201046F82010401C1028F8DB00F037
:1017700039FB06201290012013900220149010943F
:1017800016A910A800F09AFA08B10EA012E00024E1
:1017900005EB840156F824200023022000F0E4FA2F
:1017A00020B121460DA004F05BF902E0641C102C6E
:1017B000EEDB15A004F054F900F0CCFA18B070BDBF
:1017C00000000408536563746F72203620657261EF
:1017D0007365206572726F72210D0A00526577720F
:1017E00069746520707265736572766564206865DA
:1017F0006164657220776F72642025642066616978
:101800006C6564210D0A0000536563746F722036A5
:101810002065726173656420286865616465722063
:1018200036344220707265736572766564292E0DB8
:101830000A00000070B50446014605680AA004F0DD
:101840000FF9114800680168C9434906FBD40F49E4
:101850000C60BFF34F8FBFF36F8F85F3088860680C
:10186000BDE87040004700004A756D70696E6720E2
:10187000746F20616464726573733A203078253028
:1018800038580D0A000000009C08002008ED00E018
:1018900010B50F4C2046FFF749FF80B10DA004F0B2
:1018A000DFF8114C2046FFF73DFF00280FD00FA0B6
:1018B00004F0D6F82046BDE81040FFF7BBBF13A0E8
:1018C00004F0CEF82046BDE8104009F06FB910BD15
:1018D00000000408536563746F722036206973201A
:1018E000656D7074790D0A0000000608466F756E0C
:1018F000642076616C69642061707020696E205389
:101900006563746F7220370D0A000000466F756EB4
:10191000642061707020696E20536563746F72205B
:10192000360D0A00FEE7704770B504460D46C82024
:1019300006F008F80D4A0E490E48944203D1284695
:1019400003F074FA0AE08C4203D1284603F05EFBF0
:1019500004E0844202D1284603F008FC0648002136
:101960000170C0F80C54C0F8104470BD0010014064
:101970000044004000480040206D002072B6FEE7A1
:10198000002200F001B8000030B50E4B05460120E2
:101990005C7A002C14D1587A1C54587A03EB8000DE
:1019A00045605D7A03F108002A54587A421C5A7245
:1019B000303008703A2048702F208870CC7000209A
:1019C00030BD0000F8930020002229B101291AD06F
:1019D00002291BD04FF440720E490B6823F4407368
:1019E0000B600B6813430B600A6822F0F8020A6070
:1019F0000A68022303EBC00002430A60086840F44F
:101A00008030086070474FF48072E5E74FF4007251
:101A1000E2E70000103C02401348016889050FD539
:101A2000016821F400710160016841F40061016006
:101A3000016821F400610160016841F400710160F6
:101A4000016849050FD5016821F4806101600168D2
:101A500041F480510160016821F480510160016806
:101A600041F4806101607047003C024008490A6807
:101A700022F440720A600A6842F004020A600A68AE
:101A80004FF4803343EA002002430A6070470000AD
:101A9000103C0240064A136823F440731360136835
:101AA0001360136843F00103136001707047000076
:101AB000103C0240094910B50C6824F440740C60D5
:101AC0000C6844F440740C600C6844F001040C6031
:101AD0000260BFF36F8F436010BD0000103C0240F6
:101AE000074A136823F440731360136843F4807348
:101AF0001360136843F00103136001807047000016
:101B0000103C0240074A136823F4407313601368C3
:101B100043F400731360136843F001031360016022
:101B200070470000103C024017490868C206174879
:101B300005D5C26942F01002C26110220A600A682B
:101B4000920605D5C26942F00802C26120220A60ED
:101B50000A68520605D5C26942F00402C2614022F9
:101B60000A600A68120605D5C26942F00202C26123
:101B700080220A600A68920705D5C26942F02002F5
:101B8000C2610220086070470C3C0240E40800205B
:101B900070B5114904460020C86100F031FA0646CC
:101BA0000E4D09E0601C07D024B100F029FA801B1B
:101BB000A04201D9032070BD2868C003F2D4286870
:101BC000C00701D001202860286810F0F200F2D090
:101BD000FFF7AAFF012070BDE40800200C3C024082
:101BE0002DE9F0410446876D00F00AFA064694F8A4
:101BF00035000025022806D08020606584F8345026
:101C00000120BDE8F0812068016821F01601016023
:101C10002068416921F080014161206C08B9A06C05
:101C200020B12068016821F0080101602068016886
:101C300021F0010101600CE000F0E2F9801B0528B1
:101C400007D920206065032084F8350084F83450DB
:101C5000D7E720680068C007EED194F85C103F20F9
:101C60008840B860012084F8350084F834500020A2
:101C7000C7E790F83510022903D080214165012083
:101C80007047052180F835100068016821F00101D6
:101C9000016000207047000070B5044600F0B0F904
:101CA0000546601C02D004480078044400F0A8F9FE
:101CB000401BA042FAD370BD000000202DE9F04780
:101CC000044622480F46017E01290AD001218046A0
:101CD00001764CF250394846FFF75AFF020003D014
:101CE0002FE00220BDE8F0874FF0FF303860206819
:101CF000174D012801D0A6681CE0207C6168FFF721
:101D0000B5FE4846FFF744FF0246286820F004006D
:101D1000286014E0217C3046FFF756FE4846FFF766
:101D200037FF0200286820F0FA00286001D03E60EA
:101D300005E0761CD4E902100844B042EAD8FFF767
:101D40006BFE002188F818101046CBE7E40800204D
:101D5000103C02400348016841F00041016000204E
:101D600070470000103C02402DE9F0471B4E05462D
:101D70001446307E1F468946012808D0012030765F
:101D80004CF250384046FFF703FF18B114E0022030
:101D9000BDE8F0879DB1012D16D0022D19D0224645
:101DA0003B464846FFF786FE4046FFF7F1FE0C49EA
:101DB0000A6822F001020A6000213176E8E7E1B208
:101DC0004846FFF767FEEFE7A1B24846FFF788FEF7
:101DD000EAE721464846FFF795FEE5E7E4080020DC
:101DE000103C0240074900200A68002A09DA054A27
:101DF000054B0C3A1360054B13600968002900DAA3
:101E000001207047103C024023016745AB89EFCDAC
:101E10002DE9F84FDFF8BCA10022012503264FF081
:101E20000F090AF1040BAAF1040E00BF0B6805FAB2
:101E300002F42340A34270D10F7907F00307012F6A
:101E400001D0022F16D187684FEA420806FA08FC33
:101E500027EA0C07D1F80CC00CFA08FC4CEA070C76
:101E6000C0F808C04768A7430C79C4F30014944035
:101E70003C4344600C79E443A4070AD0C4684FEAA9
:101E8000420C06FA0CF7BC438F6807FA0CF727439D
:101E9000C7600C7904F00304022C12D1D40800EBC3
:101EA000840CDCF820405707FF0E09FA07F824EAF3
:101EB0000804D1F8108008FA07F848EA0408CCF8BA
:101EC000208004684FEA420C06FA0CF7BC430F79F5
:101ED00007F0030707FA0CF7274307604C6814F470
:101EE000403F70D03C4C276847F480472760246807
:101EF00022F0030704F480440094384C07EB040CF0
:101F0000DCF8084897074FEA177809FA08F7BC4346
:101F1000334FB84202D1002724E054E0314FB84299
:101F200001D101271EE0304FB84201D1022719E04C
:101F30002E4FB84201D1032714E02D4FB84201D1F2
:101F400004270FE02B4FB84201D105270AE02A4FA2
:101F5000B84201D1062705E0284FB84201D1072732
:101F600000E0082707FA08F72743CCF80878DAF8E2
:101F700000405746D1F804C09C435FEACC2C00D502
:101F80001C433C60DBF800405F46D1F804C09C4332
:101F90005FEA8C2C00D51C433C60DEF8004077469D
:101FA000D1F804C09C435FEA8C3C00D51C433C60E4
:101FB000084F083F3C68D1F804C09C435FEACC3C22
:101FC00000D51C433C60521C102AFFF42FAFBDE823
:101FD000F88F0000083C01404438024000300140C6
:101FE000000002400004024000080240000C0240D1
:101FF000001002400014024000180240001C024081
:102000000148806870470000000000200248816895
:102010000278114481607047000000200B4810B521
:10202000016841F400710160016841F48061016060
:10203000016841F480710160032000F06FF80F2007
:1020400000F006F800F024F8002010BD003C02402B
:1020500070B50D4D04464FF47A712878B1FBF0F05D
:102060000A490968B1FBF0F000F0F6FE48B9102CFF
:1020700007D200222146501E00F030F800206C608C
:1020800070BD012070BD0000000000200C00002089
:102090000A4808B5016841F480410160006800F415
:1020A000804000900548001F016841F080510160A8
:1020B000006800F08050009008BD000044380240E5
:1020C000002809DB00F01F02012191404009800037
:1020D00000F1E020C0F8001170470000F0B40E4B92
:1020E0001B680C46C3F30223C3F10705042D00D976
:1020F0000425191D072901D2002300E0DB1E01265B
:1021000006FA05F1491E214099409E40761E164070
:102110003143F0BC03F0FABC0CED00E0064900F0DE
:10212000070208684FF6FF03184040EA0220034AFE
:1021300010430860704700000CED00E00000FA0555
:102140002DE9F0470E46050065D0DFF81481D8F878
:102150000000F7B200F00700B04207D288F8007024
:10216000D8F8000000F00700B04254D128683D4C78
:10217000810712D5400703D5206840F4E050206065
:102180002878000703D5206840F46040206020686C
:10219000A96820F0F000084320602878C0072DD0FF
:1021A000304968680839012812D0022813D0032862
:1021B00011D00968890700292DDA216821F003016F
:1021C00001432160FFF71CFF814641F2883A0EE08F
:1021D00009688903EFE709688901ECE7FFF710FF59
:1021E000A0EB0901514502D90320BDE8F087206822
:1021F000696800F00C00B0EB810FEFD1D8F8001047
:10220000404601F00701B14207D90770006800F0AD
:102210000700B04201D00120E7E72878400705D544
:102220002068E96820F4E05008432060287800071F
:1022300006D52068296920F4604040EAC10020608A
:1022400000F038F82168084AC1F30311515CC84016
:102250000649086006480068FFF7FAFE0020C4E758
:10226000003C02400838024020C800080C00002052
:10227000040000200448054900680968044AC1F3C5
:102280008221515CC84070470C0000200838024091
:1022900030C800080448054900680968044AC1F3C9
:1022A0004231515CC84070470C00002008380240A1
:1022B00030C80008154810B5006810F00C0214482A
:1022C00013D04110042A0FD0082A0ED10F4C241F1E
:1022D0002268236802F03F025B0207D52068C0F342
:1022E0008810A0FB010106E0084610BD2168C1F37B
:1022F0008811A1FB00010023FDF76CFF2168C1F3E9
:102300000141491C4900B0FBF1F010BD0838024002
:102310000024F4002DE9F84F04006ED02078DFF897
:102320004C93C007A9F104054AD009F104000168E3
:10233000C1F38101012908D00068C0F3810002289F
:102340000AD1D9F80000400206D52868800337D5A5
:1023500060680028E1D033E06068B0F5803F10D0BD
:10236000B0F5A02F286810D020F4803028602868AD
:1023700020F4802028606068A8B1FFF741FE06467F
:102380000DE0286840F48030F4E740F480202860B5
:10239000F7E700BFFFF734FE801B642873D8286876
:1023A0008003F7D50CE0FFF72BFE064605E000BFE3
:1023B000FFF726FE801B6428F0D828688003F7D436
:1023C0002078DFF8AC8280074FF0000A3ED5A7489E
:1023D000001D016811F00C0F08D00068C0F38100E7
:1023E00002280BD1D9F80000400207D428688007E2
:1023F00016D5E068012800D112E033E1E068B8B1F9
:102400000120C8F80000FFF7FBFD064605E000BF0D
:10241000FFF7F6FD801B0228C0D828688007F7D593
:102420002868216920F0F80040EAC10028600DE02A
:10243000C8F800A0FFF7E4FD064604E0FFF7E0FD62
:10244000801B02281FD828688007F7D4207800074F
:1024500022D5864F87486169703771B101210160CB
:10246000FFF7CEFD064604E0FFF7CAFD801B0228F9
:1024700009D838688007F7D50EE0C0F800A0FFF74C
:10248000BFFD064605E082E0FFF7BAFD801B02288B
:102490007DD838688007F7D42078400768D5DFF802
:1024A000CCB100270BF13C0BDBF80000C0000BD4D3
:1024B000DBF8001041F08051CBF80010DBF8000091
:1024C000012700F0805000906B4E3068C00510D49A
:1024D000306840F480703060FFF792FD009005E0B6
:1024E000FFF78EFD0099401A022850D83068C005C9
:1024F000F6D55E4EA0686C3601280FD005283068EE
:1025000010D020F001003060306820F0040030600E
:10251000A068B8B1FFF774FD00900FE0306840F09C
:102520000100F4E740F004003060F7E7FFF768FDD2
:102530000099411A41F28830814266D8306880079C
:10254000F4D50EE0FFF75CFD009007E0FFF758FDC3
:102550000099411A41F28830814256D8306880078C
:10256000F4D42FB1DBF8001021F08051CBF800102B
:10257000A069C8B33D49091D0968C1F38101022959
:102580004AD00228504607D0C8F8600000E03CE07E
:10259000FFF736FD04463BE04746C8F86000FFF70A
:1025A0002FFD064605E000BFFFF72AFD801B02282D
:1025B0002BD828688001F7D4D4E907010843A16A21
:1025C0002E4A490802EB0141626A41EA821108433E
:1025D00094F82C1040EA0161C9F800100120386617
:1025E000FFF70EFD044606E03EE000BFFFF708FDE2
:1025F000001B022809D828688001F7D534E000BF05
:10260000FFF7FEFC001B022802D90320BDE8F88F6B
:1026100028688001F4D427E00128F7D0D9F8000019
:10262000E26900F4800191421CD1226A00F03F016E
:10263000914217D147F6C071626A0140B1EB821F27
:1026400010D1A26A4FF0FF3300F4403103EB520285
:10265000B1EB024F06D194F82C1000F07060B0EB93
:10266000016F01D00120D1E70020CFE704380240FC
:1026700000004742800E4742007000400000FFFF0C
:102680002DE9FE430446002603200D4684F834005D
:10269000606C03285ED0B5F5805F5BD04FF40067B7
:1026A00000204FF08068BD421FD18146009001900C
:1026B0000021206801F049FE800113D469462046BC
:1026C00002F080F907000DD10198400334D5B4F829
:1026D00050000104206801F069FE070002D10221C8
:1026E000206823E0A06B384328E01DB1A06B40F0C8
:1026F000006023E08146009001900021206801F0F5
:1027000024FE8001EED46946204602F05BF9070002
:10271000E8D10198C0030FD5B4F850000104206837
:1027200001F044FE0700DDD10021206801F08BFE9E
:102730000700D7D14F46D5E74746D3E7A063A06B44
:10274000144F4FF0010848B12068876384F8348043
:1027500001260EE0A06B40F08050EFE7211DD4E988
:10276000050C0EC9CDE90050CDF808C0206801F075
:10277000EFFD4FF40071206801F04CFE28B1216894
:102780008F63A16B0143A163012684F83480304636
:10279000BDE8FE83FF054000F0B5426E920F0A705F
:1027A000426EC2F383624A70426EC2F301628A7063
:1027B000426E120CCA70B0F86420120A0A7190F8C6
:1027C00064204A71826E120DCA80826EC2F3034287
:1027D0000A72B0F86820C2F3C0324A72B0F86820BA
:1027E000C2F380328A72B0F86820C2F34032CA72F3
:1027F000B0F86820C2F300320A7300264E73426CB0
:102800004FF40075012462B1012A3AD002684749A9
:102810009163816B41F08051816380F834400120E5
:10282000F0BDB0F86820C36E9205120D42EA9372B3
:102830000A61C26EC2F3C2620A75C26EC2F302625C
:102840004A75C26EC2F342528A75C26EC2F38242A8
:10285000CA75C26EC2F3C2320A760A69521C426558
:102860000B7E03F007039B1C9A4042650B7A03F032
:102870000F0704FA07F383655B0A5A43C0E917257B
:102880000EE090F86820C36E9206920A42EA134264
:102890000A610A69521C92024265C0E91652056635
:1028A00030F86C2FC2F3803201F8192F0288C2F37E
:1028B000C6124A70027802F07F028A704268D20F14
:1028C000CA704268C2F341720A714268C2F38262FE
:1028D0004A714268C2F383528A714268C2F340521D
:1028E000CA710E724268C2F300424A728288C2F311
:1028F000C0328A728288C2F38032CA728288C2F37E
:1029000040320A738288C2F300324A738288C2F36B
:1029100081228A738288C2F30122CA730079C0F3CC
:10292000460008744C740020F0BD0000FF05400014
:10293000426C0A60826C4A60C26C8A60026DCA6036
:10294000426D0A61826D4A61C26D8A61006EC86122
:102950000020704770B50446B0F85000002501040F
:10296000206801F058FE18B1A16B0143A16304E097
:102970000021206801F0E9FC0546C5F3432070BD45
:1029800070B504000ED094F83400002518B92577EE
:10299000204600F04FF8032084F83400204600F071
:1029A0000BF808B1012070BDA5632563012084F8F0
:1029B0003400002070BD0000FEB5002504467620DE
:1029C0000095CDE9015029460B460A46206801F0E2
:1029D000BFFC48BB154E46F8A05F206801F0CAFC5A
:1029E000012535600220FFF757F9204602F0D2F8A2
:1029F00030B100BF84F83450A16B0143A16313E0F0
:102A0000204602F04FF80028F4D14FF400712068FE
:102A100001F000FD002808D0226805499163A16BF0
:102A20000143A16384F834500120FEBD008025429B
:102A3000FF054000F0B587B0044614216846FDF755
:102A400035FC1D492068884233D11C4800240168A8
:102A500041F400610160006800F4006005901748CF
:102A60001438016841F004010160016801F00401BB
:102A70000591016841F0080101600068022500F03D
:102A8000080005904FF4F850CDE9000502AA03268E
:102A90000C2782E8D00069460948FFF7B9F90420FD
:102AA000CDE9000502AA694682E8D0000548FFF793
:102AB000AFF907B0F0BD0000002C014044380240DF
:102AC00000080240000C02402DE9F04F87B09B4601
:102AD00016460D460446FFF793FA00903DB194F870
:102AE0003400012807D0A06B40F000500DE0A06B2F
:102AF00040F0006009E00020A063E26D06EB0B01EE
:102B0000914204D9A06B40F00070A0638AE00321D9
:102B100084F834102168C862616C012900D0760203
:102B20004FF0FF3101914FEA4B2102914FF0010824
:102B300003AA902102278146CDF8188082E88202FC
:102B400001A9206801F0EBFBBBF1010F05D9276358
:102B50003146206801F0D0FC05E0C4F830803146F1
:102B6000206801F0E2FCDFF83CA130B12268C2F835
:102B700038A0A16B0143A16350E0029E1FE0406BAF
:102B8000000413D596B10027206801F0F7FB05F883
:102B9000010B010A05F8011B010C05F8021B000ED0
:102BA000361F7F1C05F8010C082FEDD3FFF728FA1C
:102BB00001460098091A1098814220D2F8B1206885
:102BC000426B40F22A310A42D9D0416BC90509D57E
:102BD000BBF1010F06D9616C032903D001F04CFD54
:102BE0000028C3D12068416B090702D4416B8905D5
:102BF0001AD5C0F838A0A06B40F0080050E021685A
:102C0000C1F838A0A06B40F00040A06384F8348085
:102C1000C4F83090032007B0BDE8F08F84F834800A
:102C2000C4F830900120F6E7416B890705D5C0F85C
:102C300038A0A06B40F0020032E0416B89061BD542
:102C4000C0F838A0A06B40F0200029E001F096FB0E
:102C500005F8010B010A05F8011B010C05F8021B20
:102C6000000E05F8010C361FFFF7CAF90099411A4A
:102C7000109881420ED268B12068416B890201D55B
:102C8000002EE3D1216840F23A50886384F8348002
:102C90000020C0E72168C1F838A0A06B40F00040D8
:102CA000A063BBE7FF0540002DE9F04F8DB09B46C8
:102CB00016460D460446FFF7A3F90A903DB194F875
:102CC0003400012807D0A06B40F000500DE0A06B4D
:102CD00040F0006009E00020A063E26D06EB0B010C
:102CE000914204D9A06B40F00070A0637AE0032108
:102CF00084F834102168C862616C012900D0760222
:102D00004FF0FF3103914FEA4B2104919021CDE91F
:102D100005104FF00109CDE90709824603A9206893
:102D200001F0FDFABBF1010F06D9202020633146E6
:102D3000206801F0BBFC05E01020206331462068CC
:102D400001F0CDFC5FEA000806D0216841488863A5
:102D5000A06B40EA080074E0049E27E0406B40044A
:102D60001CD5DEB15FF0000715F8010B009015F8D7
:102D7000011B361F40EA0120009015F8021B40EAB3
:102D80000140009015F8011C40EA0160009069467E
:102D9000206801F006FB7F1C082FE5D3FFF730F910
:102DA0000A99411A1698814220D2F8B12068416BE5
:102DB00040F21A321142D1D0416BC90523D5BBF183
:102DC000010F20D9616C03291DD001F055FCD0B151
:102DD000226820499163A16B0143A16384F8349078
:102DE000C4F830A001200DB0BDE8F08F216819486B
:102DF0008863A06B40EA0800A06384F83490C4F8AC
:102E000030A00320EFE72068416B090702D4416B33
:102E1000890505D50F498163A06B40F0080010E0DB
:102E2000416B890705D50B498163A06B40F0020017
:102E300007E0416BC90606D506498163A06B40F0E7
:102E40001000A063CAE740F23A51816384F83490DD
:102E50000020C8E7FF05400010B5401EB0F1807F9C
:102E600001D3012010BD4FF0E02460610F216017F5
:102E700002F04CFE0020A06107202061002010BD60
:102E800070477047F8B5016804460868CA684B691E
:102E900010F00F0F4FF0000559D003F0010602F4B7
:102EA0009077374365D0C10705D0D10503D5616C54
:102EB00041F001016164410705D5D90703D0616C78
:102EC00041F002016164810705D5D90703D0616C27
:102ED00041F004016164010707D502F0200131438C
:102EE00003D0616C41F008016164616C00293AD043
:102EF000800604D5900602D5204602F07AFA2068B2
:102F00004069616CC0F38010090700D460B32046AB
:102F100002F048FA20684069400621D52068143044
:102F200050E8001F21F0400140E80012002AF5D1CE
:102F3000E06BA8B16E490165E06BFEF79AFE0028D0
:102F400011D0E06B016D01B0BDE8F0400847830689
:102F50000FD593060DD52046BDE8F84002F049BADA
:102F60002046FFF78EFFF8BD2046FFF78AFF656415
:102F7000F8BD266B2023012E7DD1C6067BD5D60653
:102F800079D508684868009048694FF00206400605
:102F900041D5E16B086840680004000CE8D0A28DC0
:102FA0008242E5D9E085C869B0F5807F2DD02068E0
:102FB0000C3050E8001F21F4807140E80012002A14
:102FC000F5D12068143050E8001F21F0010140E8DD
:102FD0000012002AF5D12068143050E8001F21F0BB
:102FE000400140E80012002AF5D184F84230256300
:102FF00020680C3050E8001F21F0100140E800125A
:10300000002AF5D1E06BFEF7EBFD6663A08DE18D44
:10301000401A81B22AE0A08DE18D401A81B2E08D84
:103020000028A5D00029A3D022680C3252E8000F56
:1030300020F4907042E80007002FF5D1206814308A
:1030400050E8002F22F0010240E80027002FF5D1C0
:1030500084F84230256320680C3050E8002F22F0BD
:10306000100240E80023002BF5D166632046FFF7ED
:1030700007FFF8BDFFE705062BD5150629D594F8FF
:1030800041002128F5D1A068B0F5805F01D1206909
:10309000B0B1206A411C2162216800784860E08C50
:1030A000401E0004000CE084E3D12068C16821F0D8
:1030B0008001C1602068C16841F04001C160D8E76B
:1030C000206A0088C0F308004860206A801C2062E3
:1030D000E5E74006CDD55006CBD5CA68204622F09C
:1030E0004002CA6084F8413000F015F9C1E70000E1
:1030F0009553000870B5040004D094F841000025F1
:1031000010B106E0012070BD84F84050204600F068
:1031100023F8242084F841002068C16821F400517C
:10312000C160204602F0C6F92068016921F490418F
:1031300001612068416921F02A0141612068C1686C
:1031400041F40051C1606564202084F8410084F896
:1031500042006563002070BD10B586B0044614219E
:103160006846FDF7A3F814492068884221D1134826
:103170000021026842F010020260006800F01000B6
:1031800005900E481438026842F00102026000689F
:1031900000F0010005904FF4C06000900220CDE9DE
:1031A0000101032003900720049069460448FEF7BC
:1031B0002FFE06B010BD0000001001404438024050
:1031C000000002402DE9F84F044690F842009A466C
:1031D00016460D46202802D00220BDE8F88FB5B172
:1031E000AEB100206064222184F842102063FEF713
:1031F00007FFA6858146E685A0684FF48058202702
:10320000404501D1206920B12E46002529E001204A
:10321000E3E7002625E04B46002220212046CDF89A
:1032200000A002F0CDF918B184F842700320D4E771
:1032300026B1A06840451AD038B108E0206840683F
:10324000C0F3080025F8020B08E0206978B1206877
:10325000406800F07F0000BF06F8010BE08D401EC3
:10326000E085E08D0028D6D184F84270B5E720686B
:103270004068F1E770472DE9F843044690F84100B3
:10328000984616460D46202802D00220BDE8F88355
:1032900085B17EB100206064212084F84100FEF7F2
:1032A000AFFEA6848146E684A0682027B0F5805F43
:1032B00002D003E00120E9E7206910B12E46002585
:1032C0000EE000260CE08021204602F079F9A8B932
:1032D000C6B116F8010B21684860E08C401EE084FE
:1032E000E08C4B464FF00002CDF800800028EAD178
:1032F0004FF04001204602F063F940B184F841707C
:103300000320C3E735F8020BC0F30800E3E784F8B5
:1033100041700020BAE77047FEE7000010B504498D
:103320000448FEF72DFB0249491E087010BD00003D
:10333000F206002068C80008114808B5016841F08D
:1033400080010160016801F080010091016841F095
:1033500004010160016801F004010091016841F07D
:1033600001010160016801F001010091016841F073
:1033700008010160006800F00800009008BD00002E
:1033800030380240064805490160002141608160F3
:10339000C16001614161162181617047002C0140CB
:1033A000100700200C4810B50A4901604FF4E131C4
:1033B0004160002181600C22C160C0E9041281617A
:1033C000C161FFF797FE08B1FEF7D8FABDE81040DB
:1033D00001F004BE001001409C080020FEE7000040
:1033E00002490A681206FCD5486070470010014087
:1033F00000B5034603E000BFFFF7F2FF5B1C18783F
:103400000028F9D100BDFEE72DE9F041ADF55C7D66
:103410004FF4007739466846FCF748FF002557A06F
:1034200002F01EFB4FF4FA6842465FA15FA001F074
:1034300053FF002825D001F08DFE01466BA002F05D
:103440000FFB6CA002F00CFB01F07EFE5FF00006AB
:1034500001F086FE00286ED001F082FE044601F0E5
:1034600079FE01466DA002F0FBFABC4212D201F0D7
:1034700071FE014622466846FCF7F1FE0DF8046035
:1034800016E06CA002F0ECFA4FF0FF300DF55C7D19
:10349000BDE8F08101F05EFE014640F2FF12684691
:1034A000FCF7DDFE8DF8FF6121466DA002F0D8FA31
:1034B00075A16846FCF705FF01003AD080A800F02E
:1034C0006DFD9DF86403002830D070A180A8FCF742
:1034D00027FF002820DD6FA002F0C2FA79A20021A8
:1034E0007CA000F08DFE80A800F01CFA40B17BA00B
:1034F00002F0B6FA80A2002183A000F081FE0EE067
:1035000083A002F0ADFA8AA264218BA000F078FEBD
:1035100080A800F07FF902E089A002F0A1FA4246FB
:1035200021A190A001F0D8FE0020AFE79DA002F0FD
:1035300097FA01F009FEA549DAA807F0B7FC70B1C7
:103540006D1CB5F5967F15D9A1A002F089FA424607
:1035500015A184A001F0C0FE6FF0030096E7A7A0BC
:1035600002F07EFA424610A17EA001F0B5FE6FF097
:1035700002008BE76420FEF78FFB69E752657175E7
:10358000657374696E67206669726D776172652014
:1035900075706461746520696E666F726D617469BF
:1035A0006F6E2E2E2E0D0A004F4B000041542B51F2
:1035B0004D545355423D302C312C222F6F74612FC6
:1035C0006465766963652F757067726164652F6BDA
:1035D000316D67344E62653868752F426F6F744C79
:1035E0006F61646572222C300D0A000025730D0A8C
:1035F00000000000526571756573742073656E7408
:103600002E2057616974696E6720666F722072653B
:1036100073706F6E73652E2E2E0D0A000A0D2049F1
:103620006E7465726E2072656365697665202573B8
:103630000D0A00004661696C656420746F20737523
:103640006273637269626520746F204F5441207504
:1036500070677261646520746F706963210D0A0080
:103660005761726E696E673A2044617461207472AA
:10367000756E6361746564202825642062797465C1
:1036800073290D0A000000007B000000312E302E4F
:10369000300000004E6577206669726D7761726553
:1036A00020617661696C61626C652E205374617271
:1036B00074696E6720757067726164652E2E2E0DB9
:1036C0000A0000007374617274207570677261641F
:1036D0006500000075706772616465004669726D0F
:1036E0007761726520646F776E6C6F6164206661CC
:1036F000696C65640D0A0000646F776E6C6F6164BD
:10370000206572726F7200006661696C656400000A
:103710004669726D7761726520646F776E6C6F6158
:1037200064207375636365737366756C0D0A0000BE
:103730007375636365737300646F6E6500000000EA
:1037400043757272656E74206669726D7761726519
:103750002069732075702D746F2D646174650D0A76
:103760000000000041542B514D54554E533D302C18
:10377000312C222F6F74612F6465766963652F7514
:103780007067726164652F6B316D67344E626538A6
:1037900068752F426F6F744C6F61646572220D0AF9
:1037A000000000004572726F723A20496E76616CBB
:1037B0006964206669726D7761726520696E666FF3
:1037C000726D6174696F6E0D0A000000940700202D
:1037D00054696D656F75742077616974696E6720CF
:1037E000666F72206669726D7761726520696E66B8
:1037F0006F726D6174696F6E0D0A00000D0A55736A
:10380000657220696E7465727275707465640D0AF4
:103810000000000010B50446A2B01A208DF8800008
:1038200022460EA1684602F02BF94FF47A7215A1D8
:1038300015A001F051FD60B1684601F08FFD012136
:1038400020A801F069FD21461FA002F009F922B06D
:1038500010BD29A002F004F9F9E700007B22696499
:10386000223A2231323334222C22706172616D731C
:10387000223A7B2276657273696F6E223A22257333
:10388000227D7D003E00000041542B514D54505587
:10389000423D302C302C302C302C222F6F74612F75
:1038A0006465766963652F696E666F726D2F6B3123
:1038B0006D67344E62653868752F426F6F744C6F58
:1038C00061646572220D0A005375636365737366E4
:1038D000756C6C79207265706F72746564206669AE
:1038E000726D776172652076657273696F6E3A20CA
:1038F00025730D0A000000004572726F723A20466F
:1039000061696C656420746F2073746172742070D7
:1039100075626C697368696E672076657273696F2A
:103920006E0D0A00F0B5A1B0044680216846FCF790
:10393000BDFC04F120000746FCF7EBFC05464FF008
:10394000FF3658A002F08CF8214660A002F088F8FB
:1039500064A0D4F8201102F083F867A002F080F888
:103960006DA002F07DF82A4675A1684602F088F83D
:103970004FF4FA6277A1684601F0AEFC00284CD003
:1039800076A002F06DF8384601F0E8FC4EA001F098
:10399000E5FC4FF4FA70FEF77FF975A002F060F8CD
:1039A0007AA16846D4F8202102F06AF842F2107237
:1039B00069467CA001F090FC002834D07EA002F083
:1039C0004FF801F0C1FB04F0A1FD84A001F0C6FC9A
:1039D0004FF47A742046FEF75FF901F0BBFB014615
:1039E00089A002F03DF801F0AFFB8DA001F0B6FC1C
:1039F0002046FEF751F901F0ADFB054601F0B0FBA2
:103A0000A0F11B042819FF221B21FCF748FC2146CA
:103A10008BA002F025F8002617E08FA002F020F816
:103A2000304621B0F0BD94A002F01AF86FF001000A
:103A3000F7E7A95D9AA002F013F8F006B0F1784F0D
:103A400002D121A002F00CF8761CA642F1D3214647
:103A500095A002F005F89CA002F002F8FEF7C2F96A
:103A6000E41CA708A54E002413E000BF55F824204D
:103A7000002331460220FEF777F940B13146A0A07D
:103A800001F0EEFFFEF766F96FF00300C9E7641C72
:103A9000361DBC42EAD3FEF75DF9A5A001F0E0FFB8
:103AA0000020BEE70D0A3D3D3D3D3D3D20446F7782
:103AB0006E6C6F6164696E67204669726D776172C2
:103AC00065203D3D3D3D3D3D0D0A0000546172675E
:103AD00065742076657273696F6E3A2025730D0ADE
:103AE0000000000053697A653A20256C75206279E0
:103AF0007465730D0A000000446F776E6C6F61642B
:103B000020616464726573733A20307830383034E1
:103B1000303030300D0A00003D3D3D3D3D3D3D3DE6
:103B20003D3D3D3D3D3D3D3D3D3D3D3D3D3D3D3DC5
:103B30003D3D3D3D3D3D3D3D0D0A0D0A000000006F
:103B400041542B514854545055524C3D25642C3807
:103B5000300D0A00434F4E4E4543540053656E648A
:103B6000696E672055524C2E2E2E0D0A0000000063
:103B70005374617274696E67204854545020646FA6
:103B8000776E6C6F61642E2E2E0D0A002B514854F7
:103B900054504745543A20302C3230302C256C7527
:103BA0000D0A000041542B51485454504745543D90
:103BB00038300D0A0000000052656164696E6720AC
:103BC0006669726D77617265206461746120746FDB
:103BD0002066696C652E2E2E0D0A000041542B5173
:103BE000485454505245414446494C453D2255465F
:103BF000533A6669726D776172652E62696E222C26
:103C000038300D0A00000000446F776E6C6F6164FD
:103C100020726573756C743A2025730D0A000000DC
:103C200041542B514644574C3D225546533A666900
:103C3000726D776172652E62696E220D0A00000056
:103C4000526563656976656420256C7520627974B8
:103C500065730D0A000000004572726F723A2046CB
:103C600061696C656420746F2073657420485454D6
:103C7000502055524C0D0A004572726F723A204620
:103C800061696C656420746F20646F776E6C6F611E
:103C900064206669726D776172650D0A000000002C
:103CA00025303258200000005265636569766564EE
:103CB00020256C75206279746573206F66206461BD
:103CC00074610D0A0000000057726974696E672004
:103CD0006669726D7761726520746F20466C6173DE
:103CE00068206164647265737320307830383034D2
:103CF000303030302E2E2E0D0A0000000000040857
:103D00004572726F723A20466C61736820777269EF
:103D10007465206661696C65642061742061646407
:103D2000726573732030782530386C58210D0A0085
:103D30004669726D7761726520737563636573732D
:103D400066756C6C79207772697474656E20746F17
:103D500020466C617368210D0A00000038B5002010
:103D60008DF800004FF4FA7425A001F079FE30A020
:103D700001F076FE36A001F073FE3DA001F070FE6A
:103D800042A001F06DFE46A001F06AFE50A001F0D5
:103D900067FE5549684607F089F80028F9D19DF873
:103DA000001052A001F05CFE9DF80000303823D0D6
:103DB00001280AD002280CD003280DD04DA001F014
:103DC0004FFE2046FDF768FFCEE753A0FFF722FD28
:103DD000F7E7FFF719FBF4E751A001F041FE4FF4BC
:103DE000FA6257A157A001F077FA5AA001F038FE05
:103DF00041F28830FDF750FF63A001F031FE38BD7D
:103E00000D0A3D3D3D3D3D3D3D3D3D3D3D3D3D3D45
:103E10003D3D204F5441204D656E75203D3D3D3D5B
:103E20003D3D3D3D3D3D3D3D3D3D3D3D0D0A00009F
:103E3000312E205265706F7274204669726D776101
:103E400072652056657273696F6E0D0A000000007E
:103E5000322E20436865636B20666F72204669725C
:103E60006D7761726520557064617465730D0A0029
:103E7000332E20526573746172742045433830309C
:103E80004D204D6F64756C650D0A0000302E204585
:103E9000786974204F5441204D656E750D0A0000FD
:103EA0003D3D3D3D3D3D3D3D3D3D3D3D3D3D3D3D42
:103EB0003D3D3D3D3D3D3D3D3D3D3D3D3D3D3D3D32
:103EC0003D3D3D3D3D3D3D3D3D3D0D0A0000000079
:103ED00053656C6563742066756E6374696F6E20DC
:103EE00028302D33293A20009407002025630D0A3D
:103EF00000000000496E76616C69642063686F6938
:103F000063652C20706C6561736520747279206123
:103F10006761696E0D0A0000312E302E30000000FE
:103F200052657374617274696E672045433830302E
:103F30004D206D6F64756C652E2E2E0D0A000000ED
:103F40004F4B000041542B4346554E3D312C310D13
:103F50000A0000005265737461727420636F6D6DA6
:103F6000616E642073656E742E204D6F64756C6590
:103F70002077696C6C207265626F6F742073686F54
:103F800072746C792E0D0A0045786974696E672029
:103F90004F5441206D656E750D0A00002DE9F34FF9
:103FA000DBB00C464FF4B47B59466846FCF77EF90B
:103FB00000208DF86401002C43D038A12046FCF786
:103FC00080F900283FD003F09FF95FEA00083ED057
:103FD00033A103F07DF9044633A103F079F90746D4
:103FE00033A1204603F074F9064632A1204603F0BF
:103FF0006FF9054631A1204603F06AF904460DF138
:10400000200A0DF59279002F23D0002E21D0002D0B
:104010001FD0002C1DD01F2268463969FCF763F9B8
:10402000FF2250463169FCF75EF9686948903F22EB
:1040300048462169FCF757F901208DF8640120A05A
:1040400008E028A000E02FA001F00AFD1DE034A048
:10405000FAE73BA001F004FD46A001F001FD69462E
:104060004EA001F0FDFC514650A001F0F9FC52A019
:10407000489901F0F5FC494654A001F0F1FC56A026
:1040800001F0EEFC404603F0FFF85A4669465B98A3
:10409000FCF7E5F85DB0BDE8F08F00007B000000A4
:1040A000646174610000000076657273696F6E0070
:1040B00075726C0073697A65000000006D643500EC
:1040C0004669726D7761726520696E666F207061F6
:1040D00072736564207375636365737366756C6C66
:1040E000790D0A004572726F723A204A534F4E2082
:1040F000737472696E67206973204E554C4C0D0ABB
:10410000000000004572726F723A204E6F204A53D1
:104110004F4E206461746120666F756E640D0A00F5
:104120004572726F723A204661696C656420746FE3
:10413000207061727365204A534F4E0D0A000000D3
:104140004572726F723A204D697373696E6720729F
:1041500065717569726564206669656C6473206950
:104160006E206669726D7761726520696E666F0D8B
:104170000A0000000D0A3D3D3D3D3D3D204669726F
:104180006D7761726520496E666F726D6174696FDB
:104190006E203D3D3D3D3D3D0D0A0000566572736C
:1041A000696F6E3A2025730D0A00000055524C3A93
:1041B0002025730D0A00000053697A653A20256CAA
:1041C000752062797465730D0A0000004D44353A1C
:1041D0002025730D0A0000003D3D3D3D3D3D3D3D28
:1041E0003D3D3D3D3D3D3D3D3D3D3D3D3D3D3D3DFF
:1041F0003D3D3D3D3D3D3D3D0D0A0D0A00000000A9
:1042000070B5C2B00D46064614464FF4807101A841
:10421000FCF74CF81A208DF804015CB12046FCF73D
:1042200078F838B123463246154901A8009501F0C7
:1042300027FC05E02B46324612A101A801F020FC24
:104240002A4631461EA001F00BFC4FF47A7228A1D9
:10425000284801F041F868B101A801F07FF8012178
:1042600041A801F059F84FF4FA70FDF715FD002050
:1042700042B070BD20A001F0F3FB4FF0FF30F7E734
:1042800020CE00087B226964223A22313233342264
:104290002C22636F6465223A3230302C22646174C0
:1042A00061223A7B2273746570223A222573222C94
:1042B0002270726F6772657373223A25647D7D0088
:1042C0005265706F7274696E672070726F67726585
:1042D00073733A20737465703D25732C2070726F70
:1042E00067726573733D256425250D0A0000000083
:1042F0003E000000DCCD00084572726F723A204625
:1043000061696C656420746F207075626C69736894
:104310002070726F67726573730D0A0070470A68C8
:1043200042624A688262D1E902231A43D1E9043128
:104330000B43C16A1A4321F0F7011143C162002007
:104340007047006800F003007047084440697047F8
:1043500070B50DF1100C11439CE870002343194314
:1043600029434268314347F6FF639A430A43426058
:10437000002070BD0321016000207047D0F880004C
:1043800070470A688260D1E901231A43D1E90331F9
:104390000B43C1681A436FF30B011143C160002046
:1043A00070470968C0F880100020704710B585B0CC
:1043B00004463720CDE900104020029000200390F1
:1043C0004FF48060049069462046FFF7DAFF41F21F
:1043D00088323721204600F09BF905B010BD00005F
:1043E00010B504460A4885B001432920CDE90010E4
:1043F00040200290002003904FF4806004906946B2
:104400002046FFF7BEFF204600F03AFA05B010BD87
:104410000000108010B585B004461020CDE90010D2
:1044200040200290002003904FF480600490694681
:104430002046FFF7A6FF41F288321021204600F007
:1044400067F905B010BD10B585B004460620CDE96A
:10445000001040200290002003904FF480600490F0
:1044600069462046FFF78DFF41F28832062120463B
:1044700000F04EF905B010BD30B585B000240546FA
:10448000009401944FF480600294CDE903406946A2
:104490002846FFF776FF0B484FF4FA510068B0FB4F
:1044A000F1F041F288314843401E03D24FF0004002
:1044B00005B030BD696B0906F6D5C520A863204656
:1044C000F6E700000C00002010B585B004464FF45C
:1044D000D5700090082001904020029000200390A9
:1044E0004FF48060049069462046FFF74AFF20465B
:1044F00000F02CFA05B010BD10B585B004461220AE
:10450000CDE9001040200290002003904FF480601D
:10451000049069462046FFF734FF41F288321221A9
:10452000204600F0F5F805B010BD10B585B0044682
:104530001120CDE9001040200290002003904FF49C
:104540008060049069462046FFF71BFF41F28832E5
:104550001121204600F0DCF805B010BD10B585B083
:1045600004460720CDE9002040200290002003905F
:104570004FF48060049069462046FFF702FF41F245
:1045800088320721204600F0C3F805B010BD10B5F1
:1045900085B0044600210220CDE90010C020CDE9FD
:1045A00002014FF48060049069462046FFF7E9FE5F
:1045B000204600F03DF905B010BD10B585B00446A9
:1045C0000920CDE90010C0200290002003904FF494
:1045D0008060049069462046FFF7D3FE204600F035
:1045E00027F905B010BD10B585B004460021332071
:1045F000CDE900104020CDE9020100010490694698
:104600002046FFF7BEFE41F288323321204600F0FB
:104610007FF805B010BD10B585B004460D20CDE97A
:10462000001040200290002003904FF4806004901E
:1046300069462046FFF7A5FE41F288320D2120464B
:1046400000F066F805B010BD30B585B00C460546E3
:1046500000210320CDE900104020CDE90201000136
:10466000049069462846FFF78CFE2246032128461F
:1046700000F028F905B030BD10B585B00446002122
:104680000C20CDE900104020CDE90201000104908A
:1046900069462046FFF775FE034A0C21204600F0CC
:1046A00037F805B010BD000000E1F50510B585B084
:1046B00004461920CDE9001040200290002003900C
:1046C0004FF48060049069462046FFF75AFE41F29D
:1046D00088321921204600F01BF805B010BD10B536
:1046E00085B004461820CDE900104020029000203B
:1046F00003904FF48060049069462046FFF741FE26
:1047000041F288321821204600F002F805B010BDB1
:10471000454B10B51B684FF4FA54B3FBF4F3534305
:104720005B1E02D24FF0004010BD426B12F0450FED
:10473000F6D01205F4D4426B520703D504218163ED
:10474000084610BD426BD20702D00121816305E00B
:10475000C52282630269D2B28A4201D0012010BD13
:104760000021FFF7F2FD3149084201D1002010BDC0
:10477000002802DA4FF0007010BD410001D5402042
:1047800010BD810001D5802010BDC10002D54FF4BD
:10479000807010BD010102D54FF4007010BD4101C1
:1047A00002D54FF4806010BDC10102D54FF4006006
:1047B00010BD010202D54FF4805010BD410202D558
:1047C0004FF4005010BD810202D54FF4804010BD5F
:1047D000C10202D54FF4004010BD410302D54FF491
:1047E000003010BD810302D54FF4802010BDC103FD
:1047F00002D54FF4002010BD010402D54FF4801003
:1048000010BD410402D54FF4001010BD810402D543
:104810004FF4800010BD000702D54FF4000010BD1A
:104820004FF4803010BD00000C00002008E0FFFDB8
:1048300012494FF4FA520968B1FBF2F141F28832A1
:104840005143491E02D24FF000407047426B12F0B4
:10485000450FF6D01205F4D4416B490703D5042166
:10486000816308467047416BC90703D0012181630A
:1048700008467047C5218163002070470C00002066
:104880000F494FF4FA520968B1FBF2F141F2883254
:104890005143491E02D24FF000407047426B12F064
:1048A000450FF6D01205F4D4416B490703D5042116
:1048B000816308467047C52181630020704700006E
:1048C0000C00002030B5204B4FF4FA541B68B3FBAA
:1048D000F4F341F2883463435B1E02D24FF0004090
:1048E00030BD446B14F0450FF6D02405F4D4436B6F
:1048F0005B0703D504218163084630BD436BDB07AA
:1049000002D00121816303E00369DBB28B4201D055
:10491000012030BDC52181630021FFF716FD10F491
:10492000604F04D0410406D54FF4005030BD000C58
:104930001080002030BD000402D54FF4805030BDFF
:104940004FF4803030BD00000C00002014494FF4BB
:10495000FA520968B1FBF2F141F288325143491E23
:1049600002D24FF000407047426B12F0450FF6D074
:104970001205F4D4416B490703D50421816308462D
:104980007047416BC90703D0012181630846704716
:10499000416B490601D5402181630020704700002A
:1049A0000C00002010B5064C01202070FCF7C2FC62
:1049B00018B9207820F001002070207810BD000088
:1049C000F00600202DE9F04788B00D460446FDF7BB
:1049D00017FB00268246009601963746082120687C
:1049E000FFF718FD00282CD1B4F85000010420680E
:1049F000FFF7DCFC002824D1401E4FF00808CDE969
:104A0000020830204FF00209CDE904090120CDE968
:104A1000067002A92068FFF782FC2068FFF7E3FD1B
:104A200000280ED16F462068416B11F02A0F0BD081
:104A3000416B090702D4416B89051AD5C0F838804B
:104A4000082008B0BDE8F087416B890205D5FFF763
:104A500095FC47F82600761C02E0416B8904E7D5F7
:104A6000FDF7CEFAA0EB0A00401CDCD14FF000406D
:104A7000E7E7416B890703D5C0F838900220E0E7EB
:104A8000416B890603D5202181630846D9E740F2AE
:104A90003A518163019800BA2860009800BA6860B2
:104AA0000020CEE710B590B004460120ADF83800E4
:104AB0002068FFF746FC002854D0606C032842D0E1
:104AC0002068FFF764FD00284AD100212068FFF725
:104AD0003CFC606704212068FFF737FCA0670821D1
:104AE0002068FFF732FCE0670C212068FFF72DFCFF
:104AF000C4F88000606C032825D00EA92068FFF759
:104B0000A3FD00282CD1606C03281CD0BDF8380010
:104B1000206501042068FFF750FD002820D1002106
:104B20002068FFF712FC606604212068FFF70DFC87
:104B3000A06608212068FFF708FCE0660C212068C9
:104B4000FFF703FC206704212068FFF7FEFB000D40
:104B5000E06403A92046FDF71FFE30B14FF08050FE
:104B600010B010BD4FF08060FAE7B4F85000002399
:104B700002042068FFF7F2FC0028F1D104F11000D4
:104B800007C88DE8070094E80F00FFF7E1FB00205D
:104B9000E6E700002DE9F84F00260446009635466A
:104BA000B0460068FFF768FC002827D12068FFF7AF
:104BB0008BFC4FF0805B4FF001094FF6FF7748B157
:104BC000A6642068FFF758FC002817D1A06C0128C4
:104BD00002D020E0C4F8489000212068FFF7E6FBEF
:104BE00058B918E000212068FFF7E0FB002805D144
:104BF00051462068FFF7F4FB10B15846BDE8F88F26
:104C000000212068FFF7A1FB05464FEAD078009805
:104C1000401C009002E0DFF82CA00098B84202D2BD
:104C2000B8F1000FDED00098B84202D34FF0807088
:104C3000E4E7680002D5C4F8449000E06664002010
:104C4000DCE70000000010C170B5064C05460120ED
:104C50002070FCF77BFB18B92846FFF7A3FE2070F5
:104C6000207870BDF006002010B5124888B01446B8
:104C70000078C00702D0032008B010BDC1B10129DF
:104C800005D0022908D003290CD00420F4E7684697
:104C9000FCF74AFB06980AE06846FCF745FB0798D4
:104CA000208005E06846FCF73FFB0798400A20603B
:104CB0000020E1E7F006002070B51D4616460846C4
:104CC0000124A31E2A463146FCF760FB28B900BF29
:104CD000FCF730FB0028FBD10024204670BDFFF715
:104CE00061BE000070B51D46164608460124A31E8D
:104CF0002A463146FCF75AFB28B900BFFCF71AFBDD
:104D00000028FBD10024204670BD7047FDF77EB916
:104D100030B593B030216846FBF7C8FA14210CA8CF
:104D2000FBF7C4FA1D480025016841F0805101607D
:104D3000006800F0805011901948016841F48041EA
:104D400001600068022400F480401190012000906E
:104D5000000401908001CDE9064008AA0420A821A2
:104D600082E813000B906846FDF7D4FA08B172B6DA
:104D7000FEE70CA90F2081E831004FF4A0500F90FE
:104D80004FF48050109005210CA8FDF7D9F90028A8
:104D900001D072B6FEE713B030BD000040380240CB
:104DA0000070004070B5194C2068194A10F00C01D1
:104DB000184804D05510042903D0082903D00260F4
:104DC0001BE0056019E01149091F0B68C3F3805609
:104DD0000B6803F03F0316B1B5FBF3F201E0B2FB41
:104DE000F3F20B680968C3F388135A43C1F3014116
:104DF000491C4900B2FBF1F101602168064AC1F388
:104E00000311515C0268CA40026070BD083802405C
:104E10000024F4000C00002020C8000802480168AB
:104E200041F470010160704788ED00E0F0B506467E
:104E30004A4885B0016841F01001016047481438C4
:104E4000016841F001010160454C0025E560142135
:104E50006846FBF72BFA4FF4C060009002200190E7
:104E600001200290032003900720049069463D48EA
:104E7000FCF7CEFF012211462520FDF72FF9252052
:104E8000FDF71EF9FFF78EFF374F3868400800EE38
:104E9000100A3001B8EE401A00EE100AB8EE400ACF
:104EA000C1EE000ABCEEE00A10EE100A80B200EE7D
:104EB000100AB8EE400A30EEC00AF3EE000A20EE07
:104EC000200ABCEEC00A10EE101A89B241EA0010A6
:104ED000A060E06840F00400E060E06840F0080096
:104EE000E060E06820F48050E0602561206920F4F3
:104EF000405020616561606920F040006061606938
:104F000020F080006061E06820F08000E060E068F0
:104F100040F02000E060E06840F01000E0606FF0DA
:104F2000F0002060E06840F40050E06010480F4955
:104F3000416001F5007181600EA000F091FDFFF766
:104F400031FF1B493868B0FBF1F11AA000F088FD71
:104F50003146214800F084FD05B0F0BD44380240E0
:104F600000100140000002400C000020203500200D
:104F7000F00A00200D0D0D3D3D3D3D3D3D3D3D3DCB
:104F80003D3D202053544D33324634303756452072
:104F9000CDE2C9E820B3F5CABCBBAFB1A8B8E620E2
:104FA0003D3D3D3D3D3D3D3D3D3D3D0D0000000055
:104FB00040420F00CFB5CDB3CAB1D6D3C6B5C2CA31
:104FC0002020202020202020202020202025642098
:104FD0004D487A0D00000000ECCC000810B50948DF
:104FE00005F05EFF0848C16841F02001C160002261
:104FF00001212520FDF772F8BDE810402520FDF7BE
:105000005FB80000940700200010014070B505460D
:10501000464886B0016841F40031016043481038C9
:10502000016841F001010160414C00262660142115
:105030006846FBF73BF90C2000900220019001200C
:105040000290032003900720049069463948FCF73A
:10505000DFFE012211462620FDF740F82620FDF74D
:105060002FF8FFF79FFE34480068800800EE100A12
:105070002801B8EE401A00EE100AB8EE400AC1EE60
:10508000000ABCEEE00A10EE100A80B200EE100A30
:10509000B8EE400A30EEC00AF3EE000A20EE200A15
:1050A000BCEEC00A10EE101A89B241EA0010211FAE
:1050B0000860206840F004002060206840F008008C
:1050C0002060206820F480502060201D0660016868
:1050D00021F440510160021D1660106820F040006C
:1050E0001060106820F080001060206820F08000C0
:1050F0002060206840F020002060206840F0100010
:1051000020600B496FF0F0000C390860206840F413
:10511000005020600A480949416001F50071816032
:105120002946084800F09CFC06B070BD403802409B
:105130000C440040000002400C000020203F0020F2
:10514000000B002030CD0008014900200880704786
:10515000100B00200148406870470000100B002031
:105160000148008870470000100B002070B505460C
:10517000474886B0016841F48021016044481038F6
:10518000016841F002010160424C002626601421B2
:105190006846FBF78BF84FF44060009002200190C6
:1051A00001200290032003900720049069463A48AA
:1051B000FCF72EFE012211462720FCF78FFF272047
:1051C000FCF77EFFFFF7EEFD34480068800800EE34
:1051D000100A2801B8EE401A00EE100AB8EE400A94
:1051E000C1EE000ABCEEE00A10EE100A80B200EE3A
:1051F000100AB8EE400A30EEC00AF3EE000A20EEC4
:10520000200ABCEEC00A10EE101A89B241EA001062
:10521000211F0860206840F004002060206840F0F2
:1052200008002060206820F480502060201D066067
:10523000016821F440510160021D1660106820F0E1
:1052400040001060106820F080001060206820F09E
:1052500080002060206840F020002060206840F03E
:10526000100020600B496FF0F0000C3908602068D6
:1052700040F4005020600B480949416001F520517D
:105280008160294608A000F0EBFB06B070BD00006D
:10529000403802400C480040000402400C0000204E
:1052A00020430020100B0020554152543320496EFA
:1052B000697420202020202020202025642D4E6F7E
:1052C0006E652D382D313B20496E6974205375630E
:1052D000636573730D0000002DE9F0410D4D00264C
:1052E00014460F462E8000F039F80DE0288840B1B2
:1052F0002E8039466868FAF7E4FF10B10120BDE856
:10530000F081012002F010FB2046641EA4B2EDD211
:10531000F5E70000100B0020F0B50E4B00224FF413
:10532000007C16469D680AE09C89875C2F55641CAA
:10533000A4B29C81644500D19E81521C92B28A42E3
:10534000F2D305480168090603D4016841F08001E1
:105350000160F0BD100B00200C4800400FB410B5E8
:10536000ADF5007D4FF4007421466846FAF79EFFC4
:1053700083AB21466846829A00F096FB6846FAF7AE
:10538000C8FF81B26846FFF7C7FF0DF5007D10BC6E
:105390005DF814FB10B5806B0021C185C184FDF759
:1053A00070FD10BD01680C3151E8002F22F490729D
:1053B00041E80023002BF5D10168143151E8002F9A
:1053C00022F0010241E80023002BF5D1016B0129F5
:1053D00009D101680C3151E8002F22F0100241E898
:1053E0000023002BF5D1202180F842100021016319
:1053F000704708B590F84210222901D0022008BD5C
:1054000082684FF480539A4201D1016921B1816AC7
:105410009A421BD04AB10AE00268816A5268C2F31C
:1054200008020A80816A891C08E0026972B1026878
:10543000526802F07F020A70816A491C8162C18D44
:10544000491E0904090CC18503D01BE0026852689B
:10545000F1E70168CA6822F02002CA600168CA68E0
:1054600022F48072CA6001684A6922F001024A612E
:10547000202180F8421000214163026B012A03D0F1
:10548000FDF7F8FE002008BD016301680C3151E80A
:10549000002F22F0100241E80023002BF5D1016813
:1054A0000A68D20602D50A6849680091818DFDF725
:1054B000E7FCE7E770B5044600680169E26821F49B
:1054C0004051114301612169A068E26908436169A3
:1054D000114308432168CA6849F20C639A430243A6
:1054E000CA6020684169A26921F440711143416199
:1054F00031492068884202D03049884202D1FCF705
:10550000C9FE01E0FCF7B6FEE2690023192164251B
:105510003226B2F5004F626828D0A0FB0101930F3C
:105520009200FAF757FE0146B0FBF5F06FF0180253
:10553000504301EB800006EB0010B0FBF5F000F0EB
:10554000F002B1FBF5F002EB0012B1FBF5F06FF0E9
:105550001803584301EB800006EB0010B0FBF5F098
:1055600000F00F0021681044886070BDA0FB0101AD
:1055700092185B41FAF72EFE0146B0FBF5F00201EE
:10558000B1FBF5F06FF01803584301EB800006EB18
:10559000C000B0FBF5F000F0F80002EB4002B1FBF8
:1055A000F5F0584301EB800006EBC000B0FBF5F0CE
:1055B00000F00700D6E70000001001400014014091
:1055C0002DE9F843984617460D460446089E24E008
:1055D000701C22D0FCF714FDA0EB0800B0421AD8D2
:1055E000CEB12068C168490717D5802D15D0402D50
:1055F00013D00168C94309070FD40168002540682A
:1056000000902046FFF7CEFE0820606484F84050EA
:105610000120BDE8F8830320FBE72068006835EA35
:10562000000004D00020B842D2D00020F1E70120D1
:10563000F9E700004840034AC0B252F8200080EA6F
:1056400011207047B0020020094808B50168090719
:1056500001D5416800910168890604D54068054973
:10566000C0B205F038FCBDE808400348FDF70ABCAD
:1056700000100140940700209C0800202DE9F0470D
:10568000274D2868274C00064FF0000705F1040657
:105690004FF4007218D522480C300168090613D562
:1056A000E189A3685B5C3360491C89B2E181914266
:1056B00000D1E781E189A289914203D1016821F0FB
:1056C00080010160BDE8F0872868DFF85C80800613
:1056D0000FD5B8F80000904203D314A000F0C0F931
:1056E0001CE032680F4B20331A54401CA8F800000D
:1056F000E8E72868C006E5D50A49278091462031A9
:105700006068FAF7ACFDB8F8001021800548A8F8E9
:10571000007049462030FAF7C9FD28683068D1E7A3
:1057200000440040000B002040000020BEAFB8E65F
:10573000A3BA5541525432B5A5D6A1BDD3CAD5C1DD
:10574000BFA3ACD2D1B3ACB3F6BDD3CAD5BBBAB448
:10575000E6B4F3D0A10D21002DE9F047264D2868CD
:10576000264C00064FF0000705F1040619D5224823
:105770000C300168090614D5E189A268525C3260D8
:10578000491C89B2E181B1F5007F00D1E781E1894F
:10579000A289914203D1016821F080010160BDE836
:1057A000F0872868DFF8588080064FF420520ED525
:1057B000B8F80200904203D312A000F051F919E0AA
:1057C00032681B4B1A54401CA8F80200E7E728680F
:1057D000C006E4D52780914615496068FAF73FFD79
:1057E000B8F802102180A8F8027049461048FAF76C
:1057F0005DFD28683068D2E700480040100B0020AB
:1058000040000020BEAFB8E6A3BA5541525433B5AC
:10581000A5D6A1BDD3CAD5C1BFA3ACD2D1B3ACB3B9
:10582000F6BDD3CAD5BBBAB4E6B4F3D0A10D2100FE
:10583000200D0020FEE7000070B52F492F4886B0EC
:105840000160016811B10168491EF9E72C4801683F
:1058500041F004010160016841F001010160284844
:105860001430016841F48051016014216846FAF750
:105870001DFD01244FF400550326CDE90054CDE968
:10588000024669461F48FCF7C3FA1E4818300560F7
:10589000E020009001A9022081E851000520049039
:1058A00069461948FCF7B4FA18480460016841F0E9
:1058B00002010160016841F00401016001680160BA
:1058C00001680160016841F400710160016841F400
:1058D0008071016001680160016841F04001016070
:1058E00004F0DEFF01F066FD09480078002800D0D2
:1058F000012006B070BD0000F0874B00AC00002016
:1059000030380240000802400000024000300140F0
:105910004C7600202DE9F0410446134815460F4609
:10592000007800281DD0114E4FF000503060032049
:1059300005F0F2FFC4F3074005F0EEFFC4F30720C3
:1059400005F0EAFFE0B205F0E7FF002404E0FF20E5
:1059500005F0E2FF3855641CAC42F8D34FF4005018
:105960003060BDE8F08100004C760020180802404D
:105970007FB5040039D040F2DC552A4623A125A08A
:10598000FFF7AAFC98B1FFF7E5FB20A1FAF799FC15
:1059900068B12221FAF7B3FC48B103A9009102AB28
:1059A00001AA1FA1401CFAF709FD032820D02A46AE
:1059B0001EA120A0FFF790FC98B1FFF7CBFB1BA125
:1059C000FAF77FFC68B12221FAF799FC48B103A9E4
:1059D000009102AB01AA12A1401CFAF7EFFC0328C8
:1059E00008D04FF0FF3004B070BD6FF00900FAE747
:1059F000019804E00198642801DA00F5FA6020605B
:105A0000029860600398A0600020ECE72B514C5492
:105A1000533A000041542B514C54533D320D0A006F
:105A200025642F25642F2564000000002B43434C80
:105A30004B3A000041542B43434C4B3F0D0A0000AE
:105A400010B504464FF4E1310448FBF76DFFFBF756
:105A500085FA2046BDE81040FFF78ABF00480040A5
:105A60000FB4054B10B503A9044A029801F06CF875
:105A700010BC5DF814FB0000C19600080007002070
:105A80000FB4084B10B504A902AA039801F05CF802
:105A9000044602A9002001F0E5FB204610BC5DF899
:105AA00014FB0000657200087CB50C001D4616460C
:105AB000014601D0601E00E00020CDE90010064B39
:105AC0006A462946304601F03FF8002C02D0009A81
:105AD000002111707CBD00004F72000803B40198D2
